{"project/contracts/QuestionPaperRegistry.sol":{"QuestionPaperRegistry":{"abi":[{"inputs":[],"stateMutability":"nonpayable","type":"constructor"},{"anonymous":false,"inputs":[{"indexed":false,"internalType":"string","name":"originalHash","type":"string"},{"indexed":false,"internalType":"string","name":"centerId","type":"string"},{"indexed":false,"internalType":"string","name":"watermarkedHash","type":"string"},{"indexed":false,"internalType":"uint256","name":"timestamp","type":"uint256"}],"name":"CenterPaperStored","type":"event"},{"anonymous":false,"inputs":[{"indexed":false,"internalType":"string","name":"originalHash","type":"string"},{"indexed":false,"internalType":"uint256","name":"timestamp","type":"uint256"}],"name":"OriginalPaperStored","type":"event"},{"inputs":[],"name":"admin","outputs":[{"internalType":"address","name":"","type":"address"}],"stateMutability":"view","type":"function"},{"inputs":[{"internalType":"string","name":"","type":"string"},{"internalType":"string","name":"","type":"string"}],"name":"centerPapers","outputs":[{"internalType":"string","name":"centerId","type":"string"},{"internalType":"string","name":"watermarkedHash","type":"string"},{"internalType":"uint256","name":"timestamp","type":"uint256"}],"stateMutability":"view","type":"function"},{"inputs":[{"internalType":"string","name":"","type":"string"}],"name":"originalPapers","outputs":[{"internalType":"string","name":"originalHash","type":"string"},{"internalType":"uint256","name":"timestamp","type":"uint256"}],"stateMutability":"view","type":"function"},{"inputs":[{"internalType":"string","name":"_originalHash","type":"string"},{"internalType":"string","name":"_centerId","type":"string"},{"internalType":"string","name":"_watermarkedHash","type":"string"}],"name":"storeCenterPaper","outputs":[],"stateMutability":"nonpayable","type":"function"},{"inputs":[{"internalType":"string","name":"_originalHash","type":"string"}],"name":"storeOriginalPaper","outputs":[],"stateMutability":"nonpayable","type":"function"}],"evm":{"bytecode":{"linkReferences":{},"object":"608060405234801561000f575f80fd5b50335f806101000a81548173ffffffffffffffffffffffffffffffffffffffff021916908373ffffffffffffffffffffffffffffffffffffffff160217905550610df08061005c5f395ff3fe608060405234801561000f575f80fd5b5060043610610055575f3560e01c80631f77dae0146100595780632b2cc59d1461008b5780636f6c01cc146100a7578063e3a58c0f146100d8578063f851a440146100f4575b5f80fd5b610073600480360381019061006e9190610725565b610112565b6040516100829392919061082d565b60405180910390f35b6100a560048036038101906100a09190610870565b61027f565b005b6100c160048036038101906100bc9190610870565b61039c565b6040516100cf9291906108b7565b60405180910390f35b6100f260048036038101906100ed91906108e5565b61045a565b005b6100fc6105b5565b60405161010991906109c8565b60405180910390f35b600282805160208101820180518482526020830160208501208183528095505050505050818051602081018201805184825260208301602085012081835280955050505050505f9150915050805f01805461016c90610a0e565b80601f016020809104026020016040519081016040528092919081815260200182805461019890610a0e565b80156101e35780601f106101ba576101008083540402835291602001916101e3565b820191905f5260205f20905b8154815290600101906020018083116101c657829003601f168201915b5050505050908060010180546101f890610a0e565b80601f016020809104026020016040519081016040528092919081815260200182805461022490610a0e565b801561026f5780601f106102465761010080835404028352916020019161026f565b820191905f5260205f20905b81548152906001019060200180831161025257829003601f168201915b5050505050908060020154905083565b5f8054906101000a900473ffffffffffffffffffffffffffffffffffffffff1673ffffffffffffffffffffffffffffffffffffffff163373ffffffffffffffffffffffffffffffffffffffff161461030c576040517f08c379a000000000000000000000000000000000000000000000000000000000815260040161030390610a88565b60405180910390fd5b6040518060400160405280828152602001428152506001826040516103319190610ae0565b90815260200160405180910390205f820151815f0190816103529190610c93565b50602082015181600101559050507f38dc154de9ea36da856f43b0fb0c2ed4a31e6c08c330fc146fa661a8ec83e14b81426040516103919291906108b7565b60405180910390a150565b6001818051602081018201805184825260208301602085012081835280955050505050505f91509050805f0180546103d390610a0e565b80601f01602080910402602001604051908101604052809291908181526020018280546103ff90610a0e565b801561044a5780601f106104215761010080835404028352916020019161044a565b820191905f5260205f20905b81548152906001019060200180831161042d57829003601f168201915b5050505050908060010154905082565b5f8054906101000a900473ffffffffffffffffffffffffffffffffffffffff1673ffffffffffffffffffffffffffffffffffffffff163373ffffffffffffffffffffffffffffffffffffffff16146104e7576040517f08c379a00000000000000000000000000000000000000000000000000000000081526004016104de90610a88565b60405180910390fd5b6040518060600160405280838152602001828152602001428152506002846040516105129190610ae0565b90815260200160405180910390208360405161052e9190610ae0565b90815260200160405180910390205f820151815f01908161054f9190610c93565b5060208201518160010190816105659190610c93565b50604082015181600201559050507f04c62f878ac8e088512c2935e1f1e1e94acf17155527a1e2c3f7032d387ab63f838383426040516105a89493929190610d62565b60405180910390a1505050565b5f8054906101000a900473ffffffffffffffffffffffffffffffffffffffff1681565b5f604051905090565b5f80fd5b5f80fd5b5f80fd5b5f80fd5b5f601f19601f8301169050919050565b7f4e487b71000000000000000000000000000000000000000000000000000000005f52604160045260245ffd5b610637826105f1565b810181811067ffffffffffffffff8211171561065657610655610601565b5b80604052505050565b5f6106686105d8565b9050610674828261062e565b919050565b5f67ffffffffffffffff82111561069357610692610601565b5b61069c826105f1565b9050602081019050919050565b828183375f83830152505050565b5f6106c96106c484610679565b61065f565b9050828152602081018484840111156106e5576106e46105ed565b5b6106f08482856106a9565b509392505050565b5f82601f83011261070c5761070b6105e9565b5b813561071c8482602086016106b7565b91505092915050565b5f806040838503121561073b5761073a6105e1565b5b5f83013567ffffffffffffffff811115610758576107576105e5565b5b610764858286016106f8565b925050602083013567ffffffffffffffff811115610785576107846105e5565b5b610791858286016106f8565b9150509250929050565b5f81519050919050565b5f82825260208201905092915050565b5f5b838110156107d25780820151818401526020810190506107b7565b5f8484015250505050565b5f6107e78261079b565b6107f181856107a5565b93506108018185602086016107b5565b61080a816105f1565b840191505092915050565b5f819050919050565b61082781610815565b82525050565b5f6060820190508181035f83015261084581866107dd565b9050818103602083015261085981856107dd565b9050610868604083018461081e565b949350505050565b5f60208284031215610885576108846105e1565b5b5f82013567ffffffffffffffff8111156108a2576108a16105e5565b5b6108ae848285016106f8565b91505092915050565b5f6040820190508181035f8301526108cf81856107dd565b90506108de602083018461081e565b9392505050565b5f805f606084860312156108fc576108fb6105e1565b5b5f84013567ffffffffffffffff811115610919576109186105e5565b5b610925868287016106f8565b935050602084013567ffffffffffffffff811115610946576109456105e5565b5b610952868287016106f8565b925050604084013567ffffffffffffffff811115610973576109726105e5565b5b61097f868287016106f8565b9150509250925092565b5f73ffffffffffffffffffffffffffffffffffffffff82169050919050565b5f6109b282610989565b9050919050565b6109c2816109a8565b82525050565b5f6020820190506109db5f8301846109b9565b92915050565b7f4e487b71000000000000000000000000000000000000000000000000000000005f52602260045260245ffd5b5f6002820490506001821680610a2557607f821691505b602082108103610a3857610a376109e1565b5b50919050565b7f4f6e6c792061646d696e20616c6c6f77656400000000000000000000000000005f82015250565b5f610a726012836107a5565b9150610a7d82610a3e565b602082019050919050565b5f6020820190508181035f830152610a9f81610a66565b9050919050565b5f81905092915050565b5f610aba8261079b565b610ac48185610aa6565b9350610ad48185602086016107b5565b80840191505092915050565b5f610aeb8284610ab0565b915081905092915050565b5f819050815f5260205f209050919050565b5f6020601f8301049050919050565b5f82821b905092915050565b5f60088302610b527fffffffffffffffffffffffffffffffffffffffffffffffffffffffffffffffff82610b17565b610b5c8683610b17565b95508019841693508086168417925050509392505050565b5f819050919050565b5f610b97610b92610b8d84610815565b610b74565b610815565b9050919050565b5f819050919050565b610bb083610b7d565b610bc4610bbc82610b9e565b848454610b23565b825550505050565b5f90565b610bd8610bcc565b610be3818484610ba7565b505050565b5b81811015610c0657610bfb5f82610bd0565b600181019050610be9565b5050565b601f821115610c4b57610c1c81610af6565b610c2584610b08565b81016020851015610c34578190505b610c48610c4085610b08565b830182610be8565b50505b505050565b5f82821c905092915050565b5f610c6b5f1984600802610c50565b1980831691505092915050565b5f610c838383610c5c565b9150826002028217905092915050565b610c9c8261079b565b67ffffffffffffffff811115610cb557610cb4610601565b5b610cbf8254610a0e565b610cca828285610c0a565b5f60209050601f831160018114610cfb575f8415610ce9578287015190505b610cf38582610c78565b865550610d5a565b601f198416610d0986610af6565b5f5b82811015610d3057848901518255600182019150602085019450602081019050610d0b565b86831015610d4d5784890151610d49601f891682610c5c565b8355505b6001600288020188555050505b505050505050565b5f6080820190508181035f830152610d7a81876107dd565b90508181036020830152610d8e81866107dd565b90508181036040830152610da281856107dd565b9050610db1606083018461081e565b9594505050505056fea264697066735822122055ca2f41d41e87fe3c3dce4356ca277d360b4eb63e989255c935028517d4623364736f6c63430008140033","opcodes":"PUSH1 0x80 PUSH1 0x40 MSTORE CALLVALUE DUP1 ISZERO PUSH2 0xF JUMPI PUSH0 DUP1 REVERT JUMPDEST POP CALLER PUSH0 DUP1 PUSH2 0x100 EXP DUP2 SLOAD DUP2 PUSH20 0xFFFFFFFFFFFFFFFFFFFFFFFFFFFFFFFFFFFFFFFF MUL NOT AND SWAP1 DUP4 PUSH20 0xFFFFFFFFFFFFFFFFFFFFFFFFFFFFFFFFFFFFFFFF AND MUL OR SWAP1 SSTORE POP PUSH2 0xDF0 DUP1 PUSH2 0x5C PUSH0 CODECOPY PUSH0 RETURN INVALID PUSH1 0x80 PUSH1 0x40 MSTORE CALLVALUE DUP1 ISZERO PUSH2 0xF JUMPI PUSH0 DUP1 REVERT JUMPDEST POP PUSH1 0x4 CALLDATASIZE LT PUSH2 0x55 JUMPI PUSH0 CALLDATALOAD PUSH1 0xE0 SHR DUP1 PUSH4 0x1F77DAE0 EQ PUSH2 0x59 JUMPI DUP1 PUSH4 0x2B2CC59D EQ PUSH2 0x8B JUMPI DUP1 PUSH4 0x6F6C01CC EQ PUSH2 0xA7 JUMPI DUP1 PUSH4 0xE3A58C0F EQ PUSH2 0xD8 JUMPI DUP1 PUSH4 0xF851A440 EQ PUSH2 0xF4 JUMPI JUMPDEST PUSH0 DUP1 REVERT JUMPDEST PUSH2 0x73 PUSH1 0x4 DUP1 CALLDATASIZE SUB DUP2 ADD SWAP1 PUSH2 0x6E SWAP2 SWAP1 PUSH2 0x725 JUMP JUMPDEST PUSH2 0x112 JUMP JUMPDEST PUSH1 0x40 MLOAD PUSH2 0x82 SWAP4 SWAP3 SWAP2 SWAP1 PUSH2 0x82D JUMP JUMPDEST PUSH1 0x40 MLOAD DUP1 SWAP2 SUB SWAP1 RETURN JUMPDEST PUSH2 0xA5 PUSH1 0x4 DUP1 CALLDATASIZE SUB DUP2 ADD SWAP1 PUSH2 0xA0 SWAP2 SWAP1 PUSH2 0x870 JUMP JUMPDEST PUSH2 0x27F JUMP JUMPDEST STOP JUMPDEST PUSH2 0xC1 PUSH1 0x4 DUP1 CALLDATASIZE SUB DUP2 ADD SWAP1 PUSH2 0xBC SWAP2 SWAP1 PUSH2 0x870 JUMP JUMPDEST PUSH2 0x39C JUMP JUMPDEST PUSH1 0x40 MLOAD PUSH2 0xCF SWAP3 SWAP2 SWAP1 PUSH2 0x8B7 JUMP JUMPDEST PUSH1 0x40 MLOAD DUP1 SWAP2 SUB SWAP1 RETURN JUMPDEST PUSH2 0xF2 PUSH1 0x4 DUP1 CALLDATASIZE SUB DUP2 ADD SWAP1 PUSH2 0xED SWAP2 SWAP1 PUSH2 0x8E5 JUMP JUMPDEST PUSH2 0x45A JUMP JUMPDEST STOP JUMPDEST PUSH2 0xFC PUSH2 0x5B5 JUMP JUMPDEST PUSH1 0x40 MLOAD PUSH2 0x109 SWAP2 SWAP1 PUSH2 0x9C8 JUMP JUMPDEST PUSH1 0x40 MLOAD DUP1 SWAP2 SUB SWAP1 RETURN JUMPDEST PUSH1 0x2 DUP3 DUP1 MLOAD PUSH1 0x20 DUP2 ADD DUP3 ADD DUP1 MLOAD DUP5 DUP3 MSTORE PUSH1 0x20 DUP4 ADD PUSH1 0x20 DUP6 ADD KECCAK256 DUP2 DUP4 MSTORE DUP1 SWAP6 POP POP POP POP POP POP DUP2 DUP1 MLOAD PUSH1 0x20 DUP2 ADD DUP3 ADD DUP1 MLOAD DUP5 DUP3 MSTORE PUSH1 0x20 DUP4 ADD PUSH1 0x20 DUP6 ADD KECCAK256 DUP2 DUP4 MSTORE DUP1 SWAP6 POP POP POP POP POP POP PUSH0 SWAP2 POP SWAP2 POP POP DUP1 PUSH0 ADD DUP1 SLOAD PUSH2 0x16C SWAP1 PUSH2 0xA0E JUMP JUMPDEST DUP1 PUSH1 0x1F ADD PUSH1 0x20 DUP1 SWAP2 DIV MUL PUSH1 0x20 ADD PUSH1 0x40 MLOAD SWAP1 DUP2 ADD PUSH1 0x40 MSTORE DUP1 SWAP3 SWAP2 SWAP1 DUP2 DUP2 MSTORE PUSH1 0x20 ADD DUP3 DUP1 SLOAD PUSH2 0x198 SWAP1 PUSH2 0xA0E JUMP JUMPDEST DUP1 ISZERO PUSH2 0x1E3 JUMPI DUP1 PUSH1 0x1F LT PUSH2 0x1BA JUMPI PUSH2 0x100 DUP1 DUP4 SLOAD DIV MUL DUP4 MSTORE SWAP2 PUSH1 0x20 ADD SWAP2 PUSH2 0x1E3 JUMP JUMPDEST DUP3 ADD SWAP2 SWAP1 PUSH0 MSTORE PUSH1 0x20 PUSH0 KECCAK256 SWAP1 JUMPDEST DUP2 SLOAD DUP2 MSTORE SWAP1 PUSH1 0x1 ADD SWAP1 PUSH1 0x20 ADD DUP1 DUP4 GT PUSH2 0x1C6 JUMPI DUP3 SWAP1 SUB PUSH1 0x1F AND DUP3 ADD SWAP2 JUMPDEST POP POP POP POP POP SWAP1 DUP1 PUSH1 0x1 ADD DUP1 SLOAD PUSH2 0x1F8 SWAP1 PUSH2 0xA0E JUMP JUMPDEST DUP1 PUSH1 0x1F ADD PUSH1 0x20 DUP1 SWAP2 DIV MUL PUSH1 0x20 ADD PUSH1 0x40 MLOAD SWAP1 DUP2 ADD PUSH1 0x40 MSTORE DUP1 SWAP3 SWAP2 SWAP1 DUP2 DUP2 MSTORE PUSH1 0x20 ADD DUP3 DUP1 SLOAD PUSH2 0x224 SWAP1 PUSH2 0xA0E JUMP JUMPDEST DUP1 ISZERO PUSH2 0x26F JUMPI DUP1 PUSH1 0x1F LT PUSH2 0x246 JUMPI PUSH2 0x100 DUP1 DUP4 SLOAD DIV MUL DUP4 MSTORE SWAP2 PUSH1 0x20 ADD SWAP2 PUSH2 0x26F JUMP JUMPDEST DUP3 ADD SWAP2 SWAP1 PUSH0 MSTORE PUSH1 0x20 PUSH0 KECCAK256 SWAP1 JUMPDEST DUP2 SLOAD DUP2 MSTORE SWAP1 PUSH1 0x1 ADD SWAP1 PUSH1 0x20 ADD DUP1 DUP4 GT PUSH2 0x252 JUMPI DUP3 SWAP1 SUB PUSH1 0x1F AND DUP3 ADD SWAP2 JUMPDEST POP POP POP POP POP SWAP1 DUP1 PUSH1 0x2 ADD SLOAD SWAP1 POP DUP4 JUMP JUMPDEST PUSH0 DUP1 SLOAD SWAP1 PUSH2 0x100 EXP SWAP1 DIV PUSH20 0xFFFFFFFFFFFFFFFFFFFFFFFFFFFFFFFFFFFFFFFF AND PUSH20 0xFFFFFFFFFFFFFFFFFFFFFFFFFFFFFFFFFFFFFFFF AND CALLER PUSH20 0xFFFFFFFFFFFFFFFFFFFFFFFFFFFFFFFFFFFFFFFF AND EQ PUSH2 0x30C JUMPI PUSH1 0x40 MLOAD PUSH32 0x8C379A000000000000000000000000000000000000000000000000000000000 DUP2 MSTORE PUSH1 0x4 ADD PUSH2 0x303 SWAP1 PUSH2 0xA88 JUMP JUMPDEST PUSH1 0x40 MLOAD DUP1 SWAP2 SUB SWAP1 REVERT JUMPDEST PUSH1 0x40 MLOAD DUP1 PUSH1 0x40 ADD PUSH1 0x40 MSTORE DUP1 DUP3 DUP2 MSTORE PUSH1 0x20 ADD TIMESTAMP DUP2 MSTORE POP PUSH1 0x1 DUP3 PUSH1 0x40 MLOAD PUSH2 0x331 SWAP2 SWAP1 PUSH2 0xAE0 JUMP JUMPDEST SWAP1 DUP2 MSTORE PUSH1 0x20 ADD PUSH1 0x40 MLOAD DUP1 SWAP2 SUB SWAP1 KECCAK256 PUSH0 DUP3 ADD MLOAD DUP2 PUSH0 ADD SWAP1 DUP2 PUSH2 0x352 SWAP2 SWAP1 PUSH2 0xC93 JUMP JUMPDEST POP PUSH1 0x20 DUP3 ADD MLOAD DUP2 PUSH1 0x1 ADD SSTORE SWAP1 POP POP PUSH32 0x38DC154DE9EA36DA856F43B0FB0C2ED4A31E6C08C330FC146FA661A8EC83E14B DUP2 TIMESTAMP PUSH1 0x40 MLOAD PUSH2 0x391 SWAP3 SWAP2 SWAP1 PUSH2 0x8B7 JUMP JUMPDEST PUSH1 0x40 MLOAD DUP1 SWAP2 SUB SWAP1 LOG1 POP JUMP JUMPDEST PUSH1 0x1 DUP2 DUP1 MLOAD PUSH1 0x20 DUP2 ADD DUP3 ADD DUP1 MLOAD DUP5 DUP3 MSTORE PUSH1 0x20 DUP4 ADD PUSH1 0x20 DUP6 ADD KECCAK256 DUP2 DUP4 MSTORE DUP1 SWAP6 POP POP POP POP POP POP PUSH0 SWAP2 POP SWAP1 POP DUP1 PUSH0 ADD DUP1 SLOAD PUSH2 0x3D3 SWAP1 PUSH2 0xA0E JUMP JUMPDEST DUP1 PUSH1 0x1F ADD PUSH1 0x20 DUP1 SWAP2 DIV MUL PUSH1 0x20 ADD PUSH1 0x40 MLOAD SWAP1 DUP2 ADD PUSH1 0x40 MSTORE DUP1 SWAP3 SWAP2 SWAP1 DUP2 DUP2 MSTORE PUSH1 0x20 ADD DUP3 DUP1 SLOAD PUSH2 0x3FF SWAP1 PUSH2 0xA0E JUMP JUMPDEST DUP1 ISZERO PUSH2 0x44A JUMPI DUP1 PUSH1 0x1F LT PUSH2 0x421 JUMPI PUSH2 0x100 DUP1 DUP4 SLOAD DIV MUL DUP4 MSTORE SWAP2 PUSH1 0x20 ADD SWAP2 PUSH2 0x44A JUMP JUMPDEST DUP3 ADD SWAP2 SWAP1 PUSH0 MSTORE PUSH1 0x20 PUSH0 KECCAK256 SWAP1 JUMPDEST DUP2 SLOAD DUP2 MSTORE SWAP1 PUSH1 0x1 ADD SWAP1 PUSH1 0x20 ADD DUP1 DUP4 GT PUSH2 0x42D JUMPI DUP3 SWAP1 SUB PUSH1 0x1F AND DUP3 ADD SWAP2 JUMPDEST POP POP POP POP POP SWAP1 DUP1 PUSH1 0x1 ADD SLOAD SWAP1 POP DUP3 JUMP JUMPDEST PUSH0 DUP1 SLOAD SWAP1 PUSH2 0x100 EXP SWAP1 DIV PUSH20 0xFFFFFFFFFFFFFFFFFFFFFFFFFFFFFFFFFFFFFFFF AND PUSH20 0xFFFFFFFFFFFFFFFFFFFFFFFFFFFFFFFFFFFFFFFF AND CALLER PUSH20 0xFFFFFFFFFFFFFFFFFFFFFFFFFFFFFFFFFFFFFFFF AND EQ PUSH2 0x4E7 JUMPI PUSH1 0x40 MLOAD PUSH32 0x8C379A000000000000000000000000000000000000000000000000000000000 DUP2 MSTORE PUSH1 0x4 ADD PUSH2 0x4DE SWAP1 PUSH2 0xA88 JUMP JUMPDEST PUSH1 0x40 MLOAD DUP1 SWAP2 SUB SWAP1 REVERT JUMPDEST PUSH1 0x40 MLOAD DUP1 PUSH1 0x60 ADD PUSH1 0x40 MSTORE DUP1 DUP4 DUP2 MSTORE PUSH1 0x20 ADD DUP3 DUP2 MSTORE PUSH1 0x20 ADD TIMESTAMP DUP2 MSTORE POP PUSH1 0x2 DUP5 PUSH1 0x40 MLOAD PUSH2 0x512 SWAP2 SWAP1 PUSH2 0xAE0 JUMP JUMPDEST SWAP1 DUP2 MSTORE PUSH1 0x20 ADD PUSH1 0x40 MLOAD DUP1 SWAP2 SUB SWAP1 KECCAK256 DUP4 PUSH1 0x40 MLOAD PUSH2 0x52E SWAP2 SWAP1 PUSH2 0xAE0 JUMP JUMPDEST SWAP1 DUP2 MSTORE PUSH1 0x20 ADD PUSH1 0x40 MLOAD DUP1 SWAP2 SUB SWAP1 KECCAK256 PUSH0 DUP3 ADD MLOAD DUP2 PUSH0 ADD SWAP1 DUP2 PUSH2 0x54F SWAP2 SWAP1 PUSH2 0xC93 JUMP JUMPDEST POP PUSH1 0x20 DUP3 ADD MLOAD DUP2 PUSH1 0x1 ADD SWAP1 DUP2 PUSH2 0x565 SWAP2 SWAP1 PUSH2 0xC93 JUMP JUMPDEST POP PUSH1 0x40 DUP3 ADD MLOAD DUP2 PUSH1 0x2 ADD SSTORE SWAP1 POP POP PUSH32 0x4C62F878AC8E088512C2935E1F1E1E94ACF17155527A1E2C3F7032D387AB63F DUP4 DUP4 DUP4 TIMESTAMP PUSH1 0x40 MLOAD PUSH2 0x5A8 SWAP5 SWAP4 SWAP3 SWAP2 SWAP1 PUSH2 0xD62 JUMP JUMPDEST PUSH1 0x40 MLOAD DUP1 SWAP2 SUB SWAP1 LOG1 POP POP POP JUMP JUMPDEST PUSH0 DUP1 SLOAD SWAP1 PUSH2 0x100 EXP SWAP1 DIV PUSH20 0xFFFFFFFFFFFFFFFFFFFFFFFFFFFFFFFFFFFFFFFF AND DUP2 JUMP JUMPDEST PUSH0 PUSH1 0x40 MLOAD SWAP1 POP SWAP1 JUMP JUMPDEST PUSH0 DUP1 REVERT JUMPDEST PUSH0 DUP1 REVERT JUMPDEST PUSH0 DUP1 REVERT JUMPDEST PUSH0 DUP1 REVERT JUMPDEST PUSH0 PUSH1 0x1F NOT PUSH1 0x1F DUP4 ADD AND SWAP1 POP SWAP2 SWAP1 POP JUMP JUMPDEST PUSH32 0x4E487B7100000000000000000000000000000000000000000000000000000000 PUSH0 MSTORE PUSH1 0x41 PUSH1 0x4 MSTORE PUSH1 0x24 PUSH0 REVERT JUMPDEST PUSH2 0x637 DUP3 PUSH2 0x5F1 JUMP JUMPDEST DUP2 ADD DUP2 DUP2 LT PUSH8 0xFFFFFFFFFFFFFFFF DUP3 GT OR ISZERO PUSH2 0x656 JUMPI PUSH2 0x655 PUSH2 0x601 JUMP JUMPDEST JUMPDEST DUP1 PUSH1 0x40 MSTORE POP POP POP JUMP JUMPDEST PUSH0 PUSH2 0x668 PUSH2 0x5D8 JUMP JUMPDEST SWAP1 POP PUSH2 0x674 DUP3 DUP3 PUSH2 0x62E JUMP JUMPDEST SWAP2 SWAP1 POP JUMP JUMPDEST PUSH0 PUSH8 0xFFFFFFFFFFFFFFFF DUP3 GT ISZERO PUSH2 0x693 JUMPI PUSH2 0x692 PUSH2 0x601 JUMP JUMPDEST JUMPDEST PUSH2 0x69C DUP3 PUSH2 0x5F1 JUMP JUMPDEST SWAP1 POP PUSH1 0x20 DUP2 ADD SWAP1 POP SWAP2 SWAP1 POP JUMP JUMPDEST DUP3 DUP2 DUP4 CALLDATACOPY PUSH0 DUP4 DUP4 ADD MSTORE POP POP POP JUMP JUMPDEST PUSH0 PUSH2 0x6C9 PUSH2 0x6C4 DUP5 PUSH2 0x679 JUMP JUMPDEST PUSH2 0x65F JUMP JUMPDEST SWAP1 POP DUP3 DUP2 MSTORE PUSH1 0x20 DUP2 ADD DUP5 DUP5 DUP5 ADD GT ISZERO PUSH2 0x6E5 JUMPI PUSH2 0x6E4 PUSH2 0x5ED JUMP JUMPDEST JUMPDEST PUSH2 0x6F0 DUP5 DUP3 DUP6 PUSH2 0x6A9 JUMP JUMPDEST POP SWAP4 SWAP3 POP POP POP JUMP JUMPDEST PUSH0 DUP3 PUSH1 0x1F DUP4 ADD SLT PUSH2 0x70C JUMPI PUSH2 0x70B PUSH2 0x5E9 JUMP JUMPDEST JUMPDEST DUP2 CALLDATALOAD PUSH2 0x71C DUP5 DUP3 PUSH1 0x20 DUP7 ADD PUSH2 0x6B7 JUMP JUMPDEST SWAP2 POP POP SWAP3 SWAP2 POP POP JUMP JUMPDEST PUSH0 DUP1 PUSH1 0x40 DUP4 DUP6 SUB SLT ISZERO PUSH2 0x73B JUMPI PUSH2 0x73A PUSH2 0x5E1 JUMP JUMPDEST JUMPDEST PUSH0 DUP4 ADD CALLDATALOAD PUSH8 0xFFFFFFFFFFFFFFFF DUP2 GT ISZERO PUSH2 0x758 JUMPI PUSH2 0x757 PUSH2 0x5E5 JUMP JUMPDEST JUMPDEST PUSH2 0x764 DUP6 DUP3 DUP7 ADD PUSH2 0x6F8 JUMP JUMPDEST SWAP3 POP POP PUSH1 0x20 DUP4 ADD CALLDATALOAD PUSH8 0xFFFFFFFFFFFFFFFF DUP2 GT ISZERO PUSH2 0x785 JUMPI PUSH2 0x784 PUSH2 0x5E5 JUMP JUMPDEST JUMPDEST PUSH2 0x791 DUP6 DUP3 DUP7 ADD PUSH2 0x6F8 JUMP JUMPDEST SWAP2 POP POP SWAP3 POP SWAP3 SWAP1 POP JUMP JUMPDEST PUSH0 DUP2 MLOAD SWAP1 POP SWAP2 SWAP1 POP JUMP JUMPDEST PUSH0 DUP3 DUP3 MSTORE PUSH1 0x20 DUP3 ADD SWAP1 POP SWAP3 SWAP2 POP POP JUMP JUMPDEST PUSH0 JUMPDEST DUP4 DUP2 LT ISZERO PUSH2 0x7D2 JUMPI DUP1 DUP3 ADD MLOAD DUP2 DUP5 ADD MSTORE PUSH1 0x20 DUP2 ADD SWAP1 POP PUSH2 0x7B7 JUMP JUMPDEST PUSH0 DUP5 DUP5 ADD MSTORE POP POP POP POP JUMP JUMPDEST PUSH0 PUSH2 0x7E7 DUP3 PUSH2 0x79B JUMP JUMPDEST PUSH2 0x7F1 DUP2 DUP6 PUSH2 0x7A5 JUMP JUMPDEST SWAP4 POP PUSH2 0x801 DUP2 DUP6 PUSH1 0x20 DUP7 ADD PUSH2 0x7B5 JUMP JUMPDEST PUSH2 0x80A DUP2 PUSH2 0x5F1 JUMP JUMPDEST DUP5 ADD SWAP2 POP POP SWAP3 SWAP2 POP POP JUMP JUMPDEST PUSH0 DUP2 SWAP1 POP SWAP2 SWAP1 POP JUMP JUMPDEST PUSH2 0x827 DUP2 PUSH2 0x815 JUMP JUMPDEST DUP3 MSTORE POP POP JUMP JUMPDEST PUSH0 PUSH1 0x60 DUP3 ADD SWAP1 POP DUP2 DUP2 SUB PUSH0 DUP4 ADD MSTORE PUSH2 0x845 DUP2 DUP7 PUSH2 0x7DD JUMP JUMPDEST SWAP1 POP DUP2 DUP2 SUB PUSH1 0x20 DUP4 ADD MSTORE PUSH2 0x859 DUP2 DUP6 PUSH2 0x7DD JUMP JUMPDEST SWAP1 POP PUSH2 0x868 PUSH1 0x40 DUP4 ADD DUP5 PUSH2 0x81E JUMP JUMPDEST SWAP5 SWAP4 POP POP POP POP JUMP JUMPDEST PUSH0 PUSH1 0x20 DUP3 DUP5 SUB SLT ISZERO PUSH2 0x885 JUMPI PUSH2 0x884 PUSH2 0x5E1 JUMP JUMPDEST JUMPDEST PUSH0 DUP3 ADD CALLDATALOAD PUSH8 0xFFFFFFFFFFFFFFFF DUP2 GT ISZERO PUSH2 0x8A2 JUMPI PUSH2 0x8A1 PUSH2 0x5E5 JUMP JUMPDEST JUMPDEST PUSH2 0x8AE DUP5 DUP3 DUP6 ADD PUSH2 0x6F8 JUMP JUMPDEST SWAP2 POP POP SWAP3 SWAP2 POP POP JUMP JUMPDEST PUSH0 PUSH1 0x40 DUP3 ADD SWAP1 POP DUP2 DUP2 SUB PUSH0 DUP4 ADD MSTORE PUSH2 0x8CF DUP2 DUP6 PUSH2 0x7DD JUMP JUMPDEST SWAP1 POP PUSH2 0x8DE PUSH1 0x20 DUP4 ADD DUP5 PUSH2 0x81E JUMP JUMPDEST SWAP4 SWAP3 POP POP POP JUMP JUMPDEST PUSH0 DUP1 PUSH0 PUSH1 0x60 DUP5 DUP7 SUB SLT ISZERO PUSH2 0x8FC JUMPI PUSH2 0x8FB PUSH2 0x5E1 JUMP JUMPDEST JUMPDEST PUSH0 DUP5 ADD CALLDATALOAD PUSH8 0xFFFFFFFFFFFFFFFF DUP2 GT ISZERO PUSH2 0x919 JUMPI PUSH2 0x918 PUSH2 0x5E5 JUMP JUMPDEST JUMPDEST PUSH2 0x925 DUP7 DUP3 DUP8 ADD PUSH2 0x6F8 JUMP JUMPDEST SWAP4 POP POP PUSH1 0x20 DUP5 ADD CALLDATALOAD PUSH8 0xFFFFFFFFFFFFFFFF DUP2 GT ISZERO PUSH2 0x946 JUMPI PUSH2 0x945 PUSH2 0x5E5 JUMP JUMPDEST JUMPDEST PUSH2 0x952 DUP7 DUP3 DUP8 ADD PUSH2 0x6F8 JUMP JUMPDEST SWAP3 POP POP PUSH1 0x40 DUP5 ADD CALLDATALOAD PUSH8 0xFFFFFFFFFFFFFFFF DUP2 GT ISZERO PUSH2 0x973 JUMPI PUSH2 0x972 PUSH2 0x5E5 JUMP JUMPDEST JUMPDEST PUSH2 0x97F DUP7 DUP3 DUP8 ADD PUSH2 0x6F8 JUMP JUMPDEST SWAP2 POP POP SWAP3 POP SWAP3 POP SWAP3 JUMP JUMPDEST PUSH0 PUSH20 0xFFFFFFFFFFFFFFFFFFFFFFFFFFFFFFFFFFFFFFFF DUP3 AND SWAP1 POP SWAP2 SWAP1 POP JUMP JUMPDEST PUSH0 PUSH2 0x9B2 DUP3 PUSH2 0x989 JUMP JUMPDEST SWAP1 POP SWAP2 SWAP1 POP JUMP JUMPDEST PUSH2 0x9C2 DUP2 PUSH2 0x9A8 JUMP JUMPDEST DUP3 MSTORE POP POP JUMP JUMPDEST PUSH0 PUSH1 0x20 DUP3 ADD SWAP1 POP PUSH2 0x9DB PUSH0 DUP4 ADD DUP5 PUSH2 0x9B9 JUMP JUMPDEST SWAP3 SWAP2 POP POP JUMP JUMPDEST PUSH32 0x4E487B7100000000000000000000000000000000000000000000000000000000 PUSH0 MSTORE PUSH1 0x22 PUSH1 0x4 MSTORE PUSH1 0x24 PUSH0 REVERT JUMPDEST PUSH0 PUSH1 0x2 DUP3 DIV SWAP1 POP PUSH1 0x1 DUP3 AND DUP1 PUSH2 0xA25 JUMPI PUSH1 0x7F DUP3 AND SWAP2 POP JUMPDEST PUSH1 0x20 DUP3 LT DUP2 SUB PUSH2 0xA38 JUMPI PUSH2 0xA37 PUSH2 0x9E1 JUMP JUMPDEST JUMPDEST POP SWAP2 SWAP1 POP JUMP JUMPDEST PUSH32 0x4F6E6C792061646D696E20616C6C6F7765640000000000000000000000000000 PUSH0 DUP3 ADD MSTORE POP JUMP JUMPDEST PUSH0 PUSH2 0xA72 PUSH1 0x12 DUP4 PUSH2 0x7A5 JUMP JUMPDEST SWAP2 POP PUSH2 0xA7D DUP3 PUSH2 0xA3E JUMP JUMPDEST PUSH1 0x20 DUP3 ADD SWAP1 POP SWAP2 SWAP1 POP JUMP JUMPDEST PUSH0 PUSH1 0x20 DUP3 ADD SWAP1 POP DUP2 DUP2 SUB PUSH0 DUP4 ADD MSTORE PUSH2 0xA9F DUP2 PUSH2 0xA66 JUMP JUMPDEST SWAP1 POP SWAP2 SWAP1 POP JUMP JUMPDEST PUSH0 DUP2 SWAP1 POP SWAP3 SWAP2 POP POP JUMP JUMPDEST PUSH0 PUSH2 0xABA DUP3 PUSH2 0x79B JUMP JUMPDEST PUSH2 0xAC4 DUP2 DUP6 PUSH2 0xAA6 JUMP JUMPDEST SWAP4 POP PUSH2 0xAD4 DUP2 DUP6 PUSH1 0x20 DUP7 ADD PUSH2 0x7B5 JUMP JUMPDEST DUP1 DUP5 ADD SWAP2 POP POP SWAP3 SWAP2 POP POP JUMP JUMPDEST PUSH0 PUSH2 0xAEB DUP3 DUP5 PUSH2 0xAB0 JUMP JUMPDEST SWAP2 POP DUP2 SWAP1 POP SWAP3 SWAP2 POP POP JUMP JUMPDEST PUSH0 DUP2 SWAP1 POP DUP2 PUSH0 MSTORE PUSH1 0x20 PUSH0 KECCAK256 SWAP1 POP SWAP2 SWAP1 POP JUMP JUMPDEST PUSH0 PUSH1 0x20 PUSH1 0x1F DUP4 ADD DIV SWAP1 POP SWAP2 SWAP1 POP JUMP JUMPDEST PUSH0 DUP3 DUP3 SHL SWAP1 POP SWAP3 SWAP2 POP POP JUMP JUMPDEST PUSH0 PUSH1 0x8 DUP4 MUL PUSH2 0xB52 PUSH32 0xFFFFFFFFFFFFFFFFFFFFFFFFFFFFFFFFFFFFFFFFFFFFFFFFFFFFFFFFFFFFFFFF DUP3 PUSH2 0xB17 JUMP JUMPDEST PUSH2 0xB5C DUP7 DUP4 PUSH2 0xB17 JUMP JUMPDEST SWAP6 POP DUP1 NOT DUP5 AND SWAP4 POP DUP1 DUP7 AND DUP5 OR SWAP3 POP POP POP SWAP4 SWAP3 POP POP POP JUMP JUMPDEST PUSH0 DUP2 SWAP1 POP SWAP2 SWAP1 POP JUMP JUMPDEST PUSH0 PUSH2 0xB97 PUSH2 0xB92 PUSH2 0xB8D DUP5 PUSH2 0x815 JUMP JUMPDEST PUSH2 0xB74 JUMP JUMPDEST PUSH2 0x815 JUMP JUMPDEST SWAP1 POP SWAP2 SWAP1 POP JUMP JUMPDEST PUSH0 DUP2 SWAP1 POP SWAP2 SWAP1 POP JUMP JUMPDEST PUSH2 0xBB0 DUP4 PUSH2 0xB7D JUMP JUMPDEST PUSH2 0xBC4 PUSH2 0xBBC DUP3 PUSH2 0xB9E JUMP JUMPDEST DUP5 DUP5 SLOAD PUSH2 0xB23 JUMP JUMPDEST DUP3 SSTORE POP POP POP POP JUMP JUMPDEST PUSH0 SWAP1 JUMP JUMPDEST PUSH2 0xBD8 PUSH2 0xBCC JUMP JUMPDEST PUSH2 0xBE3 DUP2 DUP5 DUP5 PUSH2 0xBA7 JUMP JUMPDEST POP POP POP JUMP JUMPDEST JUMPDEST DUP2 DUP2 LT ISZERO PUSH2 0xC06 JUMPI PUSH2 0xBFB PUSH0 DUP3 PUSH2 0xBD0 JUMP JUMPDEST PUSH1 0x1 DUP2 ADD SWAP1 POP PUSH2 0xBE9 JUMP JUMPDEST POP POP JUMP JUMPDEST PUSH1 0x1F DUP3 GT ISZERO PUSH2 0xC4B JUMPI PUSH2 0xC1C DUP2 PUSH2 0xAF6 JUMP JUMPDEST PUSH2 0xC25 DUP5 PUSH2 0xB08 JUMP JUMPDEST DUP2 ADD PUSH1 0x20 DUP6 LT ISZERO PUSH2 0xC34 JUMPI DUP2 SWAP1 POP JUMPDEST PUSH2 0xC48 PUSH2 0xC40 DUP6 PUSH2 0xB08 JUMP JUMPDEST DUP4 ADD DUP3 PUSH2 0xBE8 JUMP JUMPDEST POP POP JUMPDEST POP POP POP JUMP JUMPDEST PUSH0 DUP3 DUP3 SHR SWAP1 POP SWAP3 SWAP2 POP POP JUMP JUMPDEST PUSH0 PUSH2 0xC6B PUSH0 NOT DUP5 PUSH1 0x8 MUL PUSH2 0xC50 JUMP JUMPDEST NOT DUP1 DUP4 AND SWAP2 POP POP SWAP3 SWAP2 POP POP JUMP JUMPDEST PUSH0 PUSH2 0xC83 DUP4 DUP4 PUSH2 0xC5C JUMP JUMPDEST SWAP2 POP DUP3 PUSH1 0x2 MUL DUP3 OR SWAP1 POP SWAP3 SWAP2 POP POP JUMP JUMPDEST PUSH2 0xC9C DUP3 PUSH2 0x79B JUMP JUMPDEST PUSH8 0xFFFFFFFFFFFFFFFF DUP2 GT ISZERO PUSH2 0xCB5 JUMPI PUSH2 0xCB4 PUSH2 0x601 JUMP JUMPDEST JUMPDEST PUSH2 0xCBF DUP3 SLOAD PUSH2 0xA0E JUMP JUMPDEST PUSH2 0xCCA DUP3 DUP3 DUP6 PUSH2 0xC0A JUMP JUMPDEST PUSH0 PUSH1 0x20 SWAP1 POP PUSH1 0x1F DUP4 GT PUSH1 0x1 DUP2 EQ PUSH2 0xCFB JUMPI PUSH0 DUP5 ISZERO PUSH2 0xCE9 JUMPI DUP3 DUP8 ADD MLOAD SWAP1 POP JUMPDEST PUSH2 0xCF3 DUP6 DUP3 PUSH2 0xC78 JUMP JUMPDEST DUP7 SSTORE POP PUSH2 0xD5A JUMP JUMPDEST PUSH1 0x1F NOT DUP5 AND PUSH2 0xD09 DUP7 PUSH2 0xAF6 JUMP JUMPDEST PUSH0 JUMPDEST DUP3 DUP2 LT ISZERO PUSH2 0xD30 JUMPI DUP5 DUP10 ADD MLOAD DUP3 SSTORE PUSH1 0x1 DUP3 ADD SWAP2 POP PUSH1 0x20 DUP6 ADD SWAP5 POP PUSH1 0x20 DUP2 ADD SWAP1 POP PUSH2 0xD0B JUMP JUMPDEST DUP7 DUP4 LT ISZERO PUSH2 0xD4D JUMPI DUP5 DUP10 ADD MLOAD PUSH2 0xD49 PUSH1 0x1F DUP10 AND DUP3 PUSH2 0xC5C JUMP JUMPDEST DUP4 SSTORE POP JUMPDEST PUSH1 0x1 PUSH1 0x2 DUP9 MUL ADD DUP9 SSTORE POP POP POP JUMPDEST POP POP POP POP POP POP JUMP JUMPDEST PUSH0 PUSH1 0x80 DUP3 ADD SWAP1 POP DUP2 DUP2 SUB PUSH0 DUP4 ADD MSTORE PUSH2 0xD7A DUP2 DUP8 PUSH2 0x7DD JUMP JUMPDEST SWAP1 POP DUP2 DUP2 SUB PUSH1 0x20 DUP4 ADD MSTORE PUSH2 0xD8E DUP2 DUP7 PUSH2 0x7DD JUMP JUMPDEST SWAP1 POP DUP2 DUP2 SUB PUSH1 0x40 DUP4 ADD MSTORE PUSH2 0xDA2 DUP2 DUP6 PUSH2 0x7DD JUMP JUMPDEST SWAP1 POP PUSH2 0xDB1 PUSH1 0x60 DUP4 ADD DUP5 PUSH2 0x81E JUMP JUMPDEST SWAP6 SWAP5 POP POP POP POP POP JUMP INVALID LOG2 PUSH5 0x6970667358 0x22 SLT KECCAK256 SSTORE 0xCA 0x2F COINBASE 0xD4 0x1E DUP8 INVALID EXTCODECOPY RETURNDATASIZE 0xCE NUMBER JUMP 0xCA 0x27 PUSH30 0x360B4EB63E989255C935028517D4623364736F6C63430008140033000000 "},"methodIdentifiers":{"admin()":"f851a440","centerPapers(string,string)":"1f77dae0","originalPapers(string)":"6f6c01cc","storeCenterPaper(string,string,string)":"e3a58c0f","storeOriginalPaper(string)":"2b2cc59d"}}}}}